:100000000C9446000C9465000C9465000C946500FB
:100010000C9465000C9465000C9465000C946500CC
:100020000C9465000C9465000C9465000C946500BC
:100030000C9465000C94DE000C9465000C94650033
:100040000C9465000C9465000C9465000C9465009C
:100050000C9465000C9465000C9465000C9465008C
:100060000C9465000C9465000C9465000C9465007C
:100070000C9465000C9465000C9465000C9465006C
:100080000C9465000C9465000C94650011241FBE4F
:10009000CFEFD0E4DEBFCDBF11E0A0E0B1E0E6E4F9
:1000A000F5E000E00BBF02C007900D92A631B1074A
:1000B000D9F721E0A6E1B1E001C01D92AF31B2074E
:1000C000E1F70E9467020C94A1020C940000CF9308
:1000D000DF9300D00F92CDB7DEB789837B836A832D
:1000E00089818A3031F48A819B81BC018DE00E9434
:1000F000670080EC90E0FC018081882F90E08072A6
:100100009927892BB1F386EC90E02981FC012083AB
:1001100080E090E00F900F900F90DF91CF910895C5
:10012000CF93DF93CDB7DEB781E890E02BE0FC0101
:10013000208388E890E02DE730E0FC0131832083C4
:100140008FE690E022E0FC01208384E890E0FC014F
:100150001182108280910E0190910F01A0911001E7
:10016000B09111018093170190931801A093190188
:10017000B0931A018FE590E0FC0120818FE590E0BB
:100180002068FC0120830000DF91CF910895CF9378
:10019000DF93CDB7DEB781E890E0FC01108200006C
:1001A000DF91CF910895CF93DF93CDB7DEB781E094
:1001B000809316010000DF91CF9108951F920F9256
:1001C0000FB60F9211240BB60F922F933F934F93BC
:1001D0005F936F937F938F939F93AF93BF93EF93AF
:1001E000FF93CF93DF93CDB7DEB780911701909146
:1001F0001801A0911901B0911A010197A109B10943
:100200008093170190931801A0931901B0931A01DC
:100210008091170190911801A0911901B0911A01D4
:10022000892B8A2B8B2B91F40E94D30080910E0195
:1002300090910F01A0911001B091110180931701CD
:1002400090931801A0931901B0931A010000DF9157
:10025000CF91FF91EF91BF91AF919F918F917F913E
:100260006F915F914F913F912F910F900BBE0F9027
:100270000FBE0F901F901895CF93DF9300D000D042
:10028000CDB7DEB769837A838B839C8389819A811A
:10029000AB81BC8180930E0190930F01A09310015C
:1002A000B093110180910E0190910F01A091100166
:1002B000B09111018093170190931801A093190137
:1002C000B0931A0100000F900F900F900F90DF91E4
:1002D000CF910895CF93DF93CDB7DEB78AE790E053
:1002E000FC0120818AE790E0206EFC012083000061
:1002F000DF91CF910895CF93DF93CDB7DEB7809193
:100300001D0190911E01892B09F0DCC088E790E067
:10031000FC018081918190931C0180931B0180914D
:100320001201909113019C013695279536952795DA
:100330003695279580911B0190911C018217930798
:1003400030F485E290E021E0FC012083BCC0809184
:10035000120190911301969587959695879596959C
:1003600087959C01220F331F80911B0190911C01E6
:100370008217930730F485E290E023E0FC012083AC
:10038000A2C080911201909113019C01369527958E
:100390003695279536952795C901880F991F280FFF
:1003A000391F80911B0190911C018217930730F433
:1003B00085E290E027E0FC01208385C08091120156
:1003C0009091130196958795969587959695879523
:1003D0009C01220F331F220F331F80911B0190912C
:1003E0001C018217930730F485E290E02FE0FC01B6
:1003F000208369C080911201909113019C01369570
:1004000027953695279536952795C901880F991F09
:10041000880F991F280F391F80911B0190911C0193
:100420008217930730F485E290E02FE1FC012083EE
:100430004AC080911201909113019C013695279535
:100440003695279536952795C901880F991F820FF4
:10045000931F880F991F9C0180911B0190911C0193
:100460008217930730F485E290E02FE3FC012083AC
:100470002AC080911201909113019C013695279515
:100480003695279536952795C901880F991F880FAE
:10049000991F880F991FAC01421B530B9A01809141
:1004A0001B0190911C018217930730F485E290E0C4
:1004B0002FE7FC01208307C085E290E02FEFFC01CD
:1004C000208301C000000000DF91CF910895CF93F9
:1004D000DF93CDB7DEB781E290E0FC01108282E2CB
:1004E00090E02FEFFC01208384E290E02FEFFC01ED
:1004F000208385E290E0FC01108287E290E02FEFFC
:10050000FC01208388E290E0FC0110828AE290E006
:100510002FEFFC0120838BE290E0FC0110826CE263
:1005200071E080E090E00E943C010E9490000E94F7
:100530006A0185E290E021E0FC0120830E947B01BA
:06054000FDCFF894FFCF8F
:10054600000000020000000067000000000001003B
:060556000000000340005C
:00000001FF
