:100000000C9446000C9465000C9465000C946500FB
:100010000C9465000C9465000C9465000C946500CC
:100020000C9465000C9465000C9465000C946500BC
:100030000C9465000C94DE000C9465000C94650033
:100040000C9465000C9465000C9465000C9465009C
:100050000C9465000C9465000C9465000C9465008C
:100060000C9465000C9465000C9465000C9465007C
:100070000C9465000C9465000C9465000C9465006C
:100080000C9465000C9465000C94650011241FBE4F
:10009000CFEFD0E4DEBFCDBF11E0A0E0B1E0E0EDF6
:1000A000F3E000E00BBF02C007900D92A431B1074E
:1000B000D9F721E0A4E1B1E001C01D92AD31B20752
:1000C000E1F70E94AC010C94E6010C940000CF9380
:1000D000DF9300D00F92CDB7DEB789837B836A832D
:1000E00089818A3031F48A819B81BC018DE00E9434
:1000F000670080EC90E0FC018081882F90E08072A6
:100100009927892BB1F386EC90E02981FC012083AB
:1001100080E090E00F900F900F90DF91CF910895C5
:10012000CF93DF93CDB7DEB781E890E02BE0FC0101
:10013000208388E890E02DE730E0FC0131832083C4
:100140008FE690E022E0FC01208384E890E0FC014F
:100150001182108280910E0190910F01A0911001E7
:10016000B09111018093150190931601A09317018E
:10017000B09318018FE590E0FC0120818FE590E0BD
:100180002068FC0120830000DF91CF910895CF9378
:10019000DF93CDB7DEB781E890E0FC01108200006C
:1001A000DF91CF910895CF93DF93CDB7DEB781E094
:1001B000809314010000DF91CF9108951F920F9258
:1001C0000FB60F9211240BB60F922F933F934F93BC
:1001D0005F936F937F938F939F93AF93BF93EF93AF
:1001E000FF93CF93DF93CDB7DEB780911501909148
:1001F0001601A0911701B09118010197A109B10949
:100200008093150190931601A0931701B0931801E4
:100210008091150190911601A0911701B0911801DC
:10022000892B8A2B8B2B91F40E94D30080910E0195
:1002300090910F01A0911001B091110180931501CF
:1002400090931601A0931701B09318010000DF915D
:10025000CF91FF91EF91BF91AF919F918F917F913E
:100260006F915F914F913F912F910F900BBE0F9027
:100270000FBE0F901F901895CF93DF9300D000D042
:10028000CDB7DEB769837A838B839C8389819A811A
:10029000AB81BC8180930E0190930F01A09310015C
:1002A000B093110180910E0190910F01A091100166
:1002B000B09111018093150190931601A09317013D
:1002C000B093180100000F900F900F900F90DF91E6
:1002D000CF910895CF93DF93CDB7DEB78AE790E053
:1002E000FC0120818AE790E0206EFC012083000061
:1002F000DF91CF910895CF93DF93CDB7DEB7809193
:100300001B0190911C01892B11F588E790E0FC01FD
:100310008081918190931A0180931901809112013B
:10032000909113019C013695279580911901909128
:100330001A012817390730F485E290E021E0FC012A
:10034000208306C085E290E0FC01108201C000001D
:100350000000DF91CF910895CF93DF93CDB7DEB743
:1003600081E290E0FC01108282E290E02FEFFC013C
:10037000208384E290E02FEFFC01208385E290E06F
:10038000FC01108287E290E02FEFFC01208388E2DD
:1003900090E0FC0110828AE290E02FEFFC012083C4
:1003A0008BE290E0FC0110826CE271E080E090E072
:1003B0000E943C010E9490000E946A0185E290E048
:1003C00021E0FC0120830E947B01FDCFF894FFCF48
:1003D00000000002000000006700000000000100B3
:0403E0000000000316
:00000001FF
